:04000000F9EFFDF027
:020000040001F9
:10FBF2000001FCEFFDF00E6A0001616B600E606FA8
:10FC0200636BC00E626F696B500E686FD5ECFEF0CD
:10FC12000E6E0E6600D000F0FFD700016351621134
:10FC2200D8B4120064C001F065C002F062C003F0F3
:10FC320063C004F068C005F069C006F021EFFEF071
:10FC420003C009F004C00AF001C007F002C008F0C6
:10FC52000ED009C0D9FF0AC0DAFF07C0E1FF08C011
:10FC6200E2FFDFCFE7FF094A0A2A074A082A050608
:10FC7200D8A006060528D8B40628D8B41200E9D7B9
:10FC82006051F36E6151F46E6251F66E6351F76E1C
:10FC92006851E96E6951EA6EE26A600EE16E036ACA
:10FCA200E76AE14AE22A032A090E0364F9D7E26A03
:10FCB200600EE16E036A010E026E016AE7500214E1
:10FCC20001E0010C0250E712D8900236012A070E19
:10FCD2000164F4D7E14AE22A032A090E0364EBD74E
:10FCE200E26A600EE16E036A010E026E016AE7507B
:10FCF2000214E7E0021CE716D8900236012A070E2A
:10FD02000164F5D7E14AE22A032A090E0364ECD71B
:10FD1200E26A690EE16E036A800E026E016AE750C2
:10FD22000214CFE10250E712D8900232012A070EE4
:10FD32000164F5D7E106D8A0E206032A090E03649E
:10FD4200EBD7E26A690EE16E036A800E026E016A07
:10FD5200E7500214B6E0021CE716D8900232012ADC
:10FD6200070E0164F5D7E106D8A0E206032A090EC0
:10FD72000364EBD7E26A690EE16E036AE750A1E120
:10FD8200E106D8A0E206032A090E0364F7D7EACFF8
:10FD920069F0E9CF68F0F7CF63F0F6CF62F0F4CF05
:10FDA20061F0F3CF60F0000C635162110EE062C0AB
:10FDB20001F063C002F060C003F061C004F068C0EB
:10FDC20005F069C006F021ECFEF06A0E0001605DEC
:10FDD200000E615917E241ECFEF00D6E0D5003E08A
:10FDE2000EECFEF0010C6B0E0B6E0C6A0001605102
:10FDF2000B5E000E0C5A0B50685F0C50695B616B16
:10FE02006A0E606F60C064F061C065F0666B676B1C
:10FE120009D060C0D9FF61C0DAFFDF6A604B612B95
:10FE2200664B672B6851665D69516759F2E364C09E
:10FE320060F065C061F0666B676B1DD0F36AF66AAD
:10FE4200070EF66401D012D060C0E1FF61C0E2FF8C
:10FE5200E750F318010ED8A4F76EE750D880F336B6
:10FE6200F310E76EF750BEE1F62AEAD70001604BC5
:10FE7200612B664B672B6851665D69516759DEE3FA
:10FE820064C060F065C061F0666B676B1DD0F3689B
:10FE9200F66A070EF66401D012D060C0E1FF61C0BD
:10FEA200E2FFE750F318010ED8A4F76EE750D8909E
:10FEB200F336F314E76EF75095E1F62AEAD700011C
:10FEC200604B612B664B672B6851665D69516759C0
:10FED200DEE36007D8A0610760C064F061C065F02E
:10FEE20068C066F069C067F020D0F36AF66A070E50
:10FEF200F66401D013D060C0E1FF61C0E2FFE750B9
:10FF0200F318010ED8A4F76EE750D880F332F3103D
:10FF1200E76EF75001E066D7F62AE9D700016007DD
:10FF2200D8A061076607D8A0670767516611DDE1AF
:10FF320064C060F065C061F068C066F069C067F0D7
:10FF420020D0F368F66A070EF66401D013D060C0C1
:10FF5200E1FF61C0E2FFE750F318010ED8A4F76E8B
:10FF6200E750D890F332F314E76EF75001E03AD736
:10FF7200F62AE9D700016007D8A061076607D8A072
:10FF8200670767516611DDE164C060F065C061F02A
:10FF920068C066F069C067F01BD0F36AF66A070EA4
:10FFA200F66401D00ED060C0E1FF61C0E2FFE7500D
:10FFB200F318010ED8A4F76EF75001E013D7F62A12
:10FFC200EED700016007D8A061076607D8A06707CF
:10FFD20067516611E2E1604B612B635162110EE0E1
:10FFE20060C001F061C002F062C003F063C004F0BF
:0EFFF20068C005F069C006F021ECFEF0000CBE
:020000040020DA
:08000000FFFFFFFFFFFFFFFF00
:020000040030CA
:0E0000001D087F7C018B91FFFFC0FFE0FF40D9
:00000001FF
