:0400000027EF7EF078
:10FC3C0051C094FF4EC0F2FF50C0CDFF4FC09DFF8E
:10FC4C00120000EE4AF0090EEE6AE806FDE1000132
:10FC5C009FEF7EF0700ED36E926A936A946A0F01D6
:10FC6C00386B396B3A6B896A8A6A8B6A880ECD6EEF
:10FC7C00880C94CF51F0F2CF4EF0CDCF50F09DCFF9
:10FC8C004FF094809482F26A880ECD6E9E909D8087
:10FC9C00FE0ECF6E000ECE6ECD809EA0FED79D9038
:10FCAC009E90120000014D510F0100F0CF5C13E14A
:10FCBC0000F000F000F000F000F000F000F000F0B8
:10FCCC0000F000F000F000F000F000F000014C51EA
:10FCDC000F01CE5C06E200014A2BD8B44B2B58EF37
:10FCEC007EF012001200096A0A6A0B6A0C6A01A003
:10FCFC0008D00550092606500A2207500B2208503E
:10FD0C000C22D8900536063607360836D8900432C1
:10FD1C000332023201320450011002100310E7E1E9
:10FD2C0009C001F00AC002F00BC003F00CC004F0D3
:10FD3C00120030EC7EF0270E496E100E486E00F06B
:10FD4C004806D8A0490649504810F9E1CD80416ACF
:10FD5C00800E426E436A446A466A140E456E050E66
:10FD6C00476E1A6A240E1B6EF40E1C6E1D6A1E6AF8
:10FD7C00800E1F6E206A216A236A140E226E050EF5
:10FD8C00246E0DEC7FF0526E526603D0898200F027
:10FD9C00FFD7898000F0FFD7156A166A176A186AB0
:10FDAC00145011101210131029E0010E196E06D008
:10FDBC00D8901136123613361436192A14AEF8D7D9
:10FDCC00D890153616361736183611500D5C125061
:10FDDC000E5813500F581450105809E311500D5E63
:10FDEC0012500E5A13500F5A1450105A1580D890A6
:10FDFC001432133212321132192EE2D715C00DF013
:10FE0C0016C00EF017C00FF018C010F012001AC078
:10FE1C0025F01BC026F01CC027F01DC028F0030ED7
:10FE2C0005D0D8902832273226322532E82EF9D741
:10FE3C0028C030F027C02FF026C02EF025C02DF0A2
:10FE4C003FEC7EF01EC005F01FC006F020C007F08E
:10FE5C0021C008F022C001F023C002F0036A046A3A
:10FE6C0079EC7EF004C010F003C00FF002C00EF06D
:10FE7C0001C00DF0E80E116E030E126E000E136A27
:10FE8C00146AD2EC7EF00DC04CF00EC04DF04D500B
:10FE9C004C1003E14D6A010E4C6EE80E116E030E10
:10FEAC00126E000E136A146A2DC005F02EC006F0F7
:10FEBC002FC007F030C008F022C001F023C002F0C0
:10FECC00036A046A79EC7EF004C010F003C00FF0F2
:10FEDC0002C00EF001C00DF0D2EC7EF010C034F078
:10FEEC000FC033F00EC032F00DC031F031C00DF048
:10FEFC0032C00EF033C00FF034C010F00F0E116E84
:10FF0C00000E126A136A146AD2EC7EF00DC039F03E
:10FF1C000EC03AF03B6A3C6A39C005F03AC006F0B4
:10FF2C003BC007F03CC008F02450016E026A036A23
:10FF3C00046A79EC7EF004C010F003C00FF002C02C
:10FF4C000EF001C00DF0640E116E000E126A136AF1
:10FF5C00146AD2EC7EF010C038F00FC037F00EC02F
:10FF6C0036F00DC035F0CE6ACF6A58EC7EF0CD90ED
:10FF7C004B504A1003E11EEC7EF0020C3550395CFC
:10FF8C00256E36503A58266E37503B58276E3850EF
:10FF9C003C58286E4A50296E4B502A6E2B6A2C6A9C
:10FFAC002550295C26502A5827502B5828502C585D
:10FFBC0003E21EEC7EF0010C4A50256E4B50266E6F
:10FFCC00276A286A35503924296E36503A202A6E11
:10FFDC0037503B202B6E38503C202C6E2550295C22
:10FFEC0026502A5827502B5828502C58E2E31EEC48
:04FFFC007EF0000C87
:020000040020DA
:08000000FFFFFFFFFFFFFFFF00
:020000040030CA
:0E000000FF291E3CFF3F85FF0FC00FE00F40A1
:00000001FF
