:0400000097EFFFF087
:020000040001F9
:10FF2E00186A176A166A156A00019EEFFFF0146AC6
:10FF3E001368036A040E026E056AFF0E04680768F2
:10FF4E000668D1ECFFF002C00FF003C010F0FFD72F
:10FF5E00E8CF01F0015000011619176F186F18390C
:10FF6E00181BD8901831D890E832D890181B183139
:10FF7E00181BD8901735171B155118B1800AD8B019
:10FF8E00020A17BF010A166FD890173518B1030A67
:10FF9E00156F120006C015F007C016F00B6A0C6A3A
:10FFAE001AD002500B24626E02C008F003C009F092
:10FFBE000B5008260C50092209C008F0096A085097
:10FFCE00636E7F9C7F9E7F8061CF0AF00A50AFECFC
:10FFDE00FFF00B4A0C2A04500B5C05500C58E1E361
:10FFEE0015C00DF016C00EF00DC002F00EC003F0DD
:02FFFE001200EF
:020000040020DA
:08000000FFFFFFFFFFFFFFFF00
:020000040030CA
:0E0000001D087F7C018B91FFFFC0FFE0FF40D9
:0200000400F00A
:08000000112233445566778894
:00000001FF
