:040000000CEF00F011
:100008004150030AD8A4110089780EEC00F01100C1
:10001800D6EF01F09EA007D0512A9E900A0E516497
:1000280002D0020E416E9EA41200CE6ACF6A9E9440
:10003800506604D0516A010E506E49D0BF504F6EC1
:10004800BE504E6E52660DD0516A51504E24016E0C
:10005800000E4F20026E01C048F002C049F04A6A03
:100068004B6A51C001F0026A036A046A02C004F0D4
:1000780001C003F0026A016A4E500124056E4F5018
:100088000220066E000E0320076E000E0420086E84
:1000980048500524096E495006200A6E4A50072028
:1000A8000B6E4B5008200C6ED8900C320B320A3273
:1000B800093209C048F00AC049F00BC04AF00CC028
:1000C8004BF0BE6ABF6A522A516A030E416E405015
:1000D800525CD8A012003B50375C016E3C50385837
:1000E800026E3D503958036E3E503A58046E015026
:1000F800485C0250495803504A5804504B5805E28E
:10010800C9EC01F0010E416E010C3B503724016E21
:100118003C503820026E3D503920036E3E503A2044
:10012800046E4850015C495002584A5003584B50DD
:100138000458E6E3C9EC01F0416A120029C02FF027
:100148002AC030F02BC031F02CC032F0030E05D09D
:10015800D8903232313230322F32E82EF9D72FC0D0
:1001680033F030C034F031C035F032C036F02DC035
:1001780040F0BCEC01F0030E416EAEEC01F033C070
:100188001CF034C01DF035C01EF036C01FF04050C2
:10019800206E216A226A236A4FEC01F01CC037F0F6
:1001A8001DC038F01EC039F01FC03AF037C011F03A
:1001B80038C012F039C013F03AC014F02E500D6E4A
:1001C8000E6A0F6A106A02EC01F00DC01CF00EC036
:1001D8001DF00FC01EF010C01FF0640E206E000E40
:1001E800216A226A236A4FEC01F01CC03BF01DC053
:1001F8003CF01EC03DF01FC03EF012000D50110231
:10020800F3CF18F0F4CF19F01A6A1B6A0D501202D6
:10021800F3CF15F0F4CF16F0176A155019261650BB
:100228001A2217501B220E501102F3CF15F0F4CFEB
:1002380016F0176A1550192616501A2217501B2245
:100248000D501302F3501A26F4501B220E501202BE
:10025800F3501A26F4501B220F501102F3501A269D
:10026800F4501B2214500D02F3501B260E5013029B
:10027800F3501B260F501202F3501B261050110288
:10028800F3501B2618C00DF019C00EF01AC00FF05D
:100298001BC010F01200246A256A266A276A2350B8
:1002A80020102110221029E0010E286E06D0D890C7
:1002B8002036213622362336282A23AEF8D7D8907E
:1002C800243625362636273620501C5C21501D58EA
:1002D80022501E5823501F5809E320501C5E2150FD
:1002E8001D5A22501E5A23501F5A2480D890233258
:1002F800223221322032282EE2D724C01CF025C019
:100308001DF026C01EF027C01FF01200A0EC01F05F
:10031800296A240E2A6EF40E2B6E2C6A3C0E2D6E62
:10032800050E2E6EA2EC00F0E1EC01F0426E4204E4
:10033800FBE1EBEC01F0F8D7700ED36E926A936A8A
:10034800040E946E0F01386B396B3A6B896A8A6AAE
:100358008B6A1200CD6ACC6ACE6ACF6A9E909D8065
:10036800040EBD6E9E949D84C00EF26ECD80C00CAE
:10037800F2CF43F0BDCF3FF0CDCF47F0CCCF46F022
:100388009DCF44F09ECF45F0120043C0F2FF3FC01E
:10039800BDFF47C0CDFF46C0CCFF44C09DFF45C050
:1003A8009EFF120000EE48F00B0EEE6AE806FDE133
:1003B800000EF86E00018AEF01F0410402E1898025
:1003C800010C416602D08982000C8974030C00F08C
:0203D800120011
:020000040020DA
:08000000FFFFFFFFFFFFFFFF00
:020000040030CA
:0E000000FF291F3CFF3F85FF0FC00FE00F40A0
:00000001FF
