:040000000EEF1EF0F1
:103C1C00016A000112EF1EF0026A0001636BC00E14
:103C2C00626F1EEC1EF0026E026600D000F0FFD731
:103C3C0062C064F063C065F062C0D9FF63C0DAFF94
:103C4C00FCCFDFFF624B632B676B010E666F200EA0
:103C5C00665D000E67591DE266C0FCFF62C0D9FFAD
:103C6C0063C0DAFFFDCFDFFF624B632B62C0D9FF6D
:103C7C0063C0DAFFFECFDFFF624B632B62C0D9FF5C
:103C8C0063C0DAFFFFCFDFFF624B632B664B672B02
:103C9C00DED7FC6AFC6AFC2AFD6AFE6AFF6AFC50ED
:103CAC001F0AF9E1000EFC6AFC2AFDB0DDEF1FF0E3
:103CBC00FD80FDB2DDEF1FF0FD82FDB4DDEF1FF0E6
:103CCC00FD84FDB6DDEF1FF0FD86FDB8DDEF1FF0C6
:103CDC00FD88FDBADDEF1FF0FD8AFDBCDDEF1FF0A6
:103CEC00FD8CFDBEDDEF1FF0FD8EFEB0DDEF1FF095
:103CFC00FE80FEB2DDEF1FF0FE82FEB4DDEF1FF0A2
:103D0C00FE84FEB6DDEF1FF0FE86FEB8DDEF1FF081
:103D1C00FE88FEBADDEF1FF0FE8AFEBCDDEF1FF061
:103D2C00FE8CFEBEDDEF1FF0FE8EFFB0DDEF1FF050
:103D3C00FF80FFB2DDEF1FF0FF82FFB4DDEF1FF05D
:103D4C00FF84FFB6DDEF1FF0FF86FFB8DDEF1FF03D
:103D5C00FF88FC501F0AA8E1000EFC6AFC2AFDA09B
:103D6C00DDEF1FF0FD90FDA2DDEF1FF0FD92FDA435
:103D7C00DDEF1FF0FD94FDA6DDEF1FF0FD96FDA815
:103D8C00DDEF1FF0FD98FDAADDEF1FF0FD9AFDACF5
:103D9C00DDEF1FF0FD9CFDAEDDEF1FF0FD9EFEA0E4
:103DAC00DDEF1FF0FE90FEA2DDEF1FF0FE92FEA4F1
:103DBC00DDEF1FF0FE94FEA6DDEF1FF0FE96FEA8D1
:103DCC00DDEF1FF0FE98FEAADDEF1FF0FE9AFEACB1
:103DDC00DDEF1FF0FE9CFEAEDDEF1FF0FE9EFFA0A0
:103DEC00DDEF1FF0FF90FFA2DDEF1FF0FF92FFA4AD
:103DFC00DDEF1FF0FF94FFA6DDEF1FF0FF96FFA88D
:103E0C00DDEF1FF0FF98FC501F0AA8E1FC6AFC2AAA
:103E1C00000EFD1A01E0CBD0FE1A01E0C8D0FF1A4B
:103E2C0001E0C5D0FC501F0AF2E1200EFC6EFC062E
:103E3C00FFB8DDEF1FF0FF88FFB6DDEF1FF0FF8648
:103E4C00FFB4DDEF1FF0FF84FFB2DDEF1FF0FF8248
:103E5C00FFB0DDEF1FF0FF80FEBEDDEF1FF0FE8E2A
:103E6C00FEBCDDEF1FF0FE8CFEBADDEF1FF0FE8A0C
:103E7C00FEB8DDEF1FF0FE88FEB6DDEF1FF0FE860C
:103E8C00FEB4DDEF1FF0FE84FEB2DDEF1FF0FE820C
:103E9C00FEB0DDEF1FF0FE80FDBEDDEF1FF0FD8EEE
:103EAC00FDBCDDEF1FF0FD8CFDBADDEF1FF0FD8AD0
:103EBC00FDB8DDEF1FF0FD88FDB6DDEF1FF0FD86D0
:103ECC00FDB4DDEF1FF0FD84FDB2DDEF1FF0FD82D0
:103EDC00FDB0DDEF1FF0FD80FC50010AA8E1200EC3
:103EEC00FC6EFC06FFA8DDEF1FF0FF98FFA6DDEFD0
:103EFC001FF0FF96FFA4DDEF1FF0FF94FFA2DDEF94
:103F0C001FF0FF92FFA0DDEF1FF0FF90FEAEDDEF84
:103F1C001FF0FE9EFEACDDEF1FF0FE9CFEAADDEF57
:103F2C001FF0FE9AFEA8DDEF1FF0FE98FEA6DDEF57
:103F3C001FF0FE96FEA4DDEF1FF0FE94FEA2DDEF57
:103F4C001FF0FE92FEA0DDEF1FF0FE90FDAEDDEF48
:103F5C001FF0FD9EFDACDDEF1FF0FD9CFDAADDEF1B
:103F6C001FF0FD9AFDA8DDEF1FF0FD98FDA6DDEF1B
:103F7C001FF0FD96FDA4DDEF1FF0FD94FDA2DDEF1B
:103F8C001FF0FD92FDA0DDEF1FF0FD90FC50010A2B
:103F9C00A8E1FC6AFC2A000EFD1A09E1FE1A07E1F1
:103FAC00FF1A05E1FC501F0AF5E1DFEF1FF00001DD
:103FBC00016900F064C062F065C063F00001624BFF
:103FCC00632B62C0E9FF63C0EAFFFC6AFC2AEE5077
:103FDC00FD6EEE50FE6EEE50FF6E1F0EFC18F6E1FD
:103FEC0064C0D9FF65C0DAFFDF50FC6E012801E127
:043FFC00010C000CA8
:020000040020DA
:08000000FFFFFFFFFFFFFFFF00
:020000040030CA
:0E000000FF281F1EFF8880FF03C003E003409F
:00000001FF
