:0400000010EFFEF00F
:020000040001F9
:10FC2000000113EFFEF00E6A0001616B600E606F61
:10FC3000636BC00E626F696B500E686FDEECFEF096
:10FC40000E6E0E6600D000F0FFD703C009F004C0AE
:10FC50000AF001C007F002C008F00ED009C0D9FFB9
:10FC60000AC0DAFF07C0E1FF08C0E2FFDFCFE7FF0D
:10FC7000094A0A2A074A082A0506D8A006060528BE
:10FC8000D8B40628D8B41200E9D760C0F3FF61C029
:10FC9000F4FF62C0F6FF63C0F7FF68C0E9FF69C008
:10FCA000EAFFE26A600EE16E026AE76AE14AE22A6E
:10FCB000022A090E0264F9D7E26A600EE16E026A56
:10FCC000010E036E016AE750031401E0010C0350BA
:10FCD000E712E7500314FAE0031CE716E750031499
:10FCE000F5E10350E712D8900336012A070E0164AC
:10FCF000EAD7E14AE22A022A090E0264E1D7E26A5F
:10FD0000600EE16E026A010E036E016AE750031491
:10FD1000DDE0031CE7160350E712D8900336012AF2
:10FD2000070E0164F3D7E14AE22A022A090E0264AF
:10FD3000EAD7E26A690EE16E026A800E036E016A1A
:10FD4000E7500314C3E0031CE7160350E712031C3B
:10FD5000E716D8900332012A070E0164F1D7E106B5
:10FD6000D8A0E206022A090E0264E7D7E26A690E09
:10FD7000E16E026A800E036E016AE7500314A6E189
:10FD80000350E712031CE716D8900332012A070E2E
:10FD90000164F3D7E106D8A0E206022A090E026444
:10FDA000E9D7EACF69F0E9CF68F0F7CF63F0F6CF93
:10FDB00062F0F4CF61F0F3CF60F0000C6351621198
:10FDC0000EE062C001F063C002F060C003F061C0E9
:10FDD00004F068C005F069C006F025ECFEF06A0E7C
:10FDE0000001605D000E615915E245ECFEF00D6EFC
:10FDF0000D5001E0010C6B0E0B6E0C6A000160519E
:10FE00000B5E000E0C5A0B50685F0C50695B616B07
:10FE10006A0E606F60C064F061C065F0666B676B0E
:10FE200009D060C0D9FF61C0DAFFDF6A604B612B87
:10FE3000664B672B6851665D69516759F2E364C090
:10FE400060F065C061F0666B676B31D0F36AF66A8B
:10FE5000070EF66401D026D060C0E1FF61C0E2FF6A
:10FE6000E750F318010ED8A4F76EE750D880F336A8
:10FE7000F310E76EE750F318010ED8A4F76EE750C1
:10FE8000D890F332F314E76EE750F318010ED8A4BC
:10FE9000F76EE750D880F336F310E76EF750AAE11B
:10FEA000F62AD6D70001604B612B664B672B685151
:10FEB000665D69516759CAE364C060F065C061F06E
:10FEC000666B676B21D0F368FE0EF46EF66A070E60
:10FED000F66401D014D060C0E1FF61C0E2FFE750DA
:10FEE000F318010ED8A4F76EF4CFE7FFD880F436EC
:10FEF000F3CFE7FFF75001E07DD7F62AE8D70001FE
:10FF0000604B612B664B672B6851665D6951675981
:10FF1000DAE36007D8A0610760C064F061C065F0F3
:10FF200068C066F069C067F027D0F3687F0EF46E92
:10FF3000F66A070EF66401D018D060C0E1FF61C018
:10FF4000E2FFE750F318010ED8A4F76EF4CFE7FFF5
:10FF5000F3CFE7FFF4CFE7FFD890F432D890F33235
:10FF6000F75001E047D7F62AE4D700016007D8A090
:10FF700061076607D8A0670767516611D6E164C0BC
:10FF800060F065C061F068C066F069C067F023D0BA
:10FF9000F36A800EF46EF66A070EF66401D014D090
:10FFA00060C0E1FF61C0E2FFE750F318010ED8A482
:10FFB000F76EF4CFE7FFF3CFE7FFD890F432F750B6
:10FFC00001E018D7F62AE8D700016007D8A061073A
:10FFD0006607D8A0670767516611DAE163516211BD
:10FFE0000EE064C001F065C002F062C003F063C0BF
:10FFF00004F068C005F069C006F025ECFEF0000CC6
:020000040020DA
:08000000FFFFFFFFFFFFFFFF00
:020000040030CA
:0E0000001D087F7C018B91FFFFC0FFE0FF40D9
:00000001FF
