:0400000053EFFFF0CB
:020000040001F9
:10FEA600000156EFFFF01E6A1D6A0A0E1C6E0C6AF0
:10FEB600300E0B6E0E6A0A0E0D6E106A3A0E0F6E3B
:10FEC6008AECFFF01E6E1E6600D000F0FFD703C05E
:10FED60009F004C00AF001C007F002C008F00ED015
:10FEE60009C0D9FF0AC0DAFF07C0E1FF08C0E2FF78
:10FEF600DFCFE7FF094A0A2A074A082A0506D8A0DB
:10FF060006060528D8B40628D8B41200E9D7AA0EE2
:10FF1600176E10500F100EE00FC001F010C002F067
:10FF26000BC003F00CC004F00DC005F00EC006F0C7
:10FF36006AECFFF00BC013F00CC014F0156A48D041
:10FF4600166A0BD00BC0D9FF0CC0DAFF17C0DFFF53
:10FF56000B4A0C2AFF0E171A162A1650116E126A31
:10FF66000D50115C0E501258EDE313C00BF014C087
:10FF76000CF0166A1ED00BC0D9FF0CC0DAFFDF509A
:10FF8600171812E010500F100EE00BC001F00CC055
:10FF960002F00FC003F010C004F00DC005F00EC053
:10FFA60006F06AECFFF0010C0B4A0C2AFF0E171A3A
:10FFB600162A1650116E126A0D50115C0E50125808
:10FFC600DAE3FF0E171A13C00BF014C00CF0152A53
:10FFD600010E1564B5D710500F100EE00BC001F0DE
:10FFE6000CC002F00FC003F010C004F00DC005F005
:0AFFF6000EC006F06AECFFF0000CEC
:020000040020DA
:08000000FFFFFFFFFFFFFFFF00
:020000040030CA
:0E0000001D087F7C018B91FFFFC0FFE0FF40D9
:00000001FF
