:04000000FCEFFEF023
:020000040001F9
:10FDF8000001FFEFFEF0016A07ECFFF0016E0166FB
:10FE080000D000F0FFD7FCCF00F0FDCF01F0FECF0F
:10FE180002F0FFCF03F0F2CF04F0F1CF05F0F0CFFE
:10FE280006F0AA0EAA0834E1550E550831E1F6CFBE
:10FE380007F0550EF66EF6622BD0AA0EF66EF66235
:10FE480027D007C0F6FFF7CF07F0550EF76EF76219
:10FE58001FD0AA0EF76EF7621BD007C0F7FFF8CFC6
:10FE680007F0150EF86EF86213D02A0EF86EF862D5
:10FE78000FD007C0F8FFF5CF07F0550EF56EF56205
:10FE880007D0AA0EF56EF56203D007C0F5FF10D0B3
:10FE980000C0FCFF0150FD6E0250FE6E0350FF6E65
:10FEA80004C0F2FF05C0F1FF06C0F0FF010C00F02E
:10FEB800F4CF07F0550EF46EF462EAD7AA0EF46E8A
:10FEC800F462E6D707C0F4FFF3CF07F0550EF36EE0
:10FED800F362DED7AA0EF36EF362DAD707C0F3FF38
:10FEE800E9CF07F0550EE96EE962D2D7AA0EE96E9E
:10FEF800E962CED707C0E9FFEACF07F0050EEA6E40
:10FF0800EA62C6D70A0EEA6EEA62C2D707C0EAFFFB
:10FF1800E1CF07F0550EE16EE162BAD7AA0EE16EA5
:10FF2800E162B6D707C0E1FFE2CF07F0050EE26E47
:10FF3800E262AED70A0EE26EE262AAD707C0E2FF1B
:10FF4800D9CF07F0550ED96ED962A2D7AA0ED96EAD
:10FF5800D9629ED707C0D9FFDACF07F0050EDA6E4F
:10FF6800DA6296D70A0EDA6EDA6292D707C0DAFF3B
:10FF7800D0CF07F01D0ED06ED0628AD78E0ED06E0D
:10FF8800D06286D707C0D0FFF29E150ED86ED86211
:10FF98007FD70A0ED86ED8627BD7150EFF6EFF6228
:10FFA80077D70A0EFF6EFF6273D7550EFE6EFE629C
:10FFB8006FD7AA0EFE6EFE626BD7550EFD6EFD6200
:10FFC80067D7AA0EFD6EFD6263D7150EFC6EFC6244
:10FFD8005FD70A0EFC6EFC625BD704C0F2FF05C057
:10FFE800F1FF06C0F0FF00C0FCFF0150FD6E02509B
:08FFF800FE6E0350FF6E000CC9
:020000040020DA
:08000000FFFFFFFFFFFFFFFF00
:020000040030CA
:0E0000001D087F7C018B91FFFFC0FFE0FF40D9
:00000001FF
