:0C000000F4EF07F0110022003300440070
:100F000000000AC020F00BC021F002C0F6FF03C0B1
:100F1000F7FF04C0F8FF106A116A0ED00900F5CF80
:100F200012F00900F5CF13F01350B7EC07F0125090
:100F3000B7EC07F0104A112A10C00CF011C00DF0E8
:100F4000000E0DBEFF0E0E6E0F6E06500C5C0750AD
:100F50000D5808500E5809500F58E0E320C014F007
:100F600021C015F014C002F015C003F01200E8CF44
:100F700001F0015000012119226F236F2339231B37
:100F8000D8902331D890E832D890231B2331231BEB
:100F9000D8902235221B205123B1800AD8B0020AF2
:100FA00022BF010A216FD890223523B1030A206F96
:100FB0001200410E1C6E1F0E1D6E1E6A1F6A040E6B
:100FC000026E036A046A056A410E066E1F0E076E02
:100FD000086A096AFF0E0B680A6881EC07F002C014
:100FE00016F003C017F0FFD7236A226A216A206A2D
:060FF0000001D9EF07F03B
:020000040020DA
:08000000FFFFFFFFFFFFFFFF00
:020000040030CA
:0E0000001D087F7C018B91FFFFC0FFE0FF40D9
:00000001FF
